:020000041A00E0
:10000000008000102906001AA101001AA701001A99
:10001000AD01001AB301001AB901001A7671FF533D
:10002000000000000000000000000000BF01001AF6
:10003000C501001A00000000CB01001AE924001AD3
:10004000D701001AD701001AD701001A00000000DA
:10005000D701001AD701001AD701001AD701001AD8
:10006000D529001AD701001AD701001AD701001AA2
:10007000D701001AD701001AD701001AD701001AB8
:10008000D701001AD701001AD701001AD701001AA8
:10009000D701001AD701001AD701001AD701001A98
:1000A000D701001AD701001AD701001AD701001A88
:1000B000D701001AD701001AD701001AD701001A78
:1000C0005C31001A00000010480000005C31001A8A
:1000D00000000810000000005C31001A0000002041
:1000E000000000005C31001A0080002000000000C9
:1000F0005C31001A00C00020000000004800001021
:100100004400000000000810000000000000002073
:1001100000000000008000200000000000C000205F
:100120000000000080B489B000AFF860B9607A6068
:10013000BB68FB61FB68BB6100237B610AE0BA69B5
:10014000131DBB61FB69191DF96112681A607B6997
:1001500004337B617A697B689A42F0D300BF24370D
:10016000BD465DF8047B704780B485B000AF786011
:1001700039607B68FB600023BB6007E0FB681A1DE9
:10018000FA6000221A60BB680433BB60BA683B683F
:100190009A42F3D300BF1437BD465DF8047B704725
:1001A00080B400AFFEE780B400AFFEE780B400AFDC
:1001B000FEE780B400AFFEE780B400AFFEE780B496
:1001C00000AFFEE780B400AFFEE780B400AFFEE70B
:1001D00080B400AFFEE780B400AFFEE7FFFFFFFF93
:1001E000FFFFFFFFFFFFFFFFFFFFFFFFFFFFFFFF1F
:1001F000FFFFFFFFFFFFFFFFFFFFFFFFFFFFFFFF0F
:10020000FFFFFFFFFFFFFFFFFFFFFFFFFFFFFFFFFE
:10021000FFFFFFFFFFFFFFFFFFFFFFFFFFFFFFFFEE
:10022000FFFFFFFFFFFFFFFFFFFFFFFFFFFFFFFFDE
:10023000FFFFFFFFFFFFFFFFFFFFFFFFFFFFFFFFCE
:10024000FFFFFFFFFFFFFFFFFFFFFFFFFFFFFFFFBE
:10025000FFFFFFFFFFFFFFFFFFFFFFFFFFFFFFFFAE
:10026000FFFFFFFFFFFFFFFFFFFFFFFFFFFFFFFF9E
:10027000FFFFFFFFFFFFFFFFFFFFFFFFFFFFFFFF8E
:10028000FFFFFFFFFFFFFFFFFFFFFFFFFFFFFFFF7E
:10029000FFFFFFFFFFFFFFFFFFFFFFFFFFFFFFFF6E
:1002A000FFFFFFFFFFFFFFFFFFFFFFFFFFFFFFFF5E
:1002B000FFFFFFFFFFFFFFFFFFFFFFFFFFFFFFFF4E
:1002C000FFFFFFFFFFFFFFFFFFFFFFFFFFFFFFFF3E
:1002D000FFFFFFFFFFFFFFFFFFFFFFFFFFFFFFFF2E
:1002E000FFFFFFFFFFFFFFFFFFFFFFFFFFFFFFFF1E
:1002F000FFFFFFFFFFFFFFFFFFFFFFFFFFFFFFFF0E
:1003000080B489B000AFF860B9607A607B68012B77
:1003100002DD7B68242B04DDBB6800221A70BB68F9
:100320003CE0BB68FB61BB68BB61FB687B61FA6852
:100330007B6892FBF3F3FB60FB687A6802FB03F3D4
:100340007A69D31A03F12302FB69591CF961164932
:100350008A5C1A70FB68002BE7D17B69002B04DAFA
:10036000FB695A1CFA612D221A70FB695A1EFA6148
:1003700000221A700DE0FB691B78FB74FB695A1EA2
:10038000FA61BA6912781A70BB695A1CBA61FA7CB0
:100390001A70BA69FB699A42EDD3BB6818462437D4
:1003A000BD465DF8047B7047202E001A80B500AF73
:1003B00000F028F8044B32221A600449032001F0AF
:1003C000B9FF00BF80BD00BF54000010682E001AA6
:1003D00080B582B000AF78607B680A220749184672
:1003E000FFF78EFF0549032001F0A4FF0449032015
:1003F00001F0A0FF00BF0837BD4680BD48000010D7
:10040000842E001A80B500AF00F078F80246024B47
:100410001A6000BF80BD00BF5800001080B582B0D8
:1004200000AF00F06BF802460F4B1B68D31A7B60DD
:100430000E4B1B68DA0F13445B1019467B68DA0F0A
:1004400013445B100B44094A1360084B1B68084AAD
:1004500082FB03121212DB17D31A7B607B681846EB
:100460000837BD4680BD00BF580000105C0000107A
:10047000ED18265B80B582B000AF0346FB710B46DA
:10048000BB7113467B717B79402B08D0802B02D047
:10049000202B08D00BE0154B01221A7009E0134BFA
:1004A00002221A7005E0114B03221A7001E00123A9
:1004B00018E00F4ABB7913700E4AFB7913700E498E
:1004C000032001F037FF0A4B93F900300121184651
:1004D00002F012F9074B93F900300021184602F0A0
:1004E0000BF9002318460837BD4680BD00000010F8
:1004F0006000001061000010882E001A80B582B0E4
:1005000000AF00BF284B93F90030184602F01EFAE6
:100510000346002BF6D10023FB701FE0234B93F919
:1005200000300121184602F0C7F97B685B007B6050
:100530001E4B93F900300021184602F0BDF91A4B0A
:1005400093F90030184602F001FA0346002B02D05E
:100550007B6801337B60FB780133FB70FB78172BE2
:10056000DCD90023BB7010E0104B93F9003001215F
:10057000184602F0A1F90D4B93F9003000211846FE
:1005800002F09AF9BB780133BB70094B1B78BA783B
:100590009A42E9D37B6883F400037B607B6818464A
:1005A0000837BD4680BD00BF61000010600000102C
:1005B0000000001080B500AF02F01CFA4FF4E131EA
:1005C000032001F00BFE80220F212020FFF752FFB5
:1005D000FFF7ECFE0849032001F0ACFEFFF71EFF19
:1005E00003461846FFF7F4FE4FF064004FF0000199
:1005F00002F040FAF2E700BF982E001A80B400AF74
:1006000000BFBD465DF8047B704780B400AF00BFFB
:10061000BD465DF8047B704780B400AF00BFBD46A7
:100620005DF8047B7047FFFF80B588B000AF72B6FD
:10063000294B7B617B69294A1A607B690433284A0C
:100640001A60284B3B610023FB6109E0FB699B00BA
:100650003A6913444FF0FF321A60FB690133FB61C2
:10066000FB69072BF2D962B61F4BBB6113E0BB6974
:100670001A1DBA611B68FB60BB691A1DBA611B6851
:10068000BB60BB691A1DBA611B687B607A68B96878
:10069000F868FFF747FDBB69144A9342E7D30DE0C2
:1006A000BB691A1DBA611B68BB60BB691A1DBA61C0
:1006B0001B687B607968B868FFF756FDBB690C4A18
:1006C0009342EDD301F092FC02F07EFBFFF796FF20
:1006D000FFF770FF30BFFDE7003105400010DF106D
:1006E000FFF7DF0180E200E0C000001AFC00001A02
:1006F0002401001A80B483B000AF7860044A7B689C
:10070000C2F8843C00BF0C37BD465DF8047B7047DF
:100710000060084080B483B000AF7860084611469E
:100720001A460346FB700B46BB7013467B70FA7883
:10073000BB787878796852010A44134402461A70EB
:1007400000BF0C37BD465DF8047B704780B483B0B2
:1007500000AF78600B46FB701346BB70FA787B687D
:1007600002F5006253F82210BB78012202FA03F36B
:10077000FA7819437B6802F5006243F8221000BF43
:100780000C37BD465DF8047B704780B483B000AF82
:1007900078600B46FB701346BB70FA787B6802F5F5
:1007A000006253F82210BB78012202FA03F3DB4304
:1007B000FA7819407B6802F5006243F8221000BF06
:1007C0000C37BD465DF8047B704780B483B000AF42
:1007D00078607B685B6843F002027B685A6000BF08
:1007E0000C37BD465DF8047B704780B485B000AF20
:1007F000F860B9607A603B60FB681B6823F0FF0219
:10080000BB681A437B681A433B681A43FB681A604B
:1008100000BF1437BD465DF8047B704780B483B0D9
:1008200000AF786039607B685B6823F004023B6846
:100830001A437B685A6000BF0C37BD465DF8047BE5
:10084000704780B483B000AF78607B680122DA65BE
:1008500000BF0C37BD465DF8047B704780B483B0A1
:1008600000AF786039607B683A68DA6000BF0C37A7
:10087000BD465DF8047B704780B582B000AF0023B1
:100880007B6017E07B685B000E4A13443B603B686B
:1008900019783B685B781A460B48FFF757FF3B68AF
:1008A00019783B685A7800230748FFF733FF7B68C5
:1008B00001337B607B68052BE4D900BF0837BD4658
:1008C00080BD00BFB02E001A00400F4080B582B03E
:1008D00000AF00237B600FE07B685B000A4A134493
:1008E0003B603B6819783B685B781A460748FFF71E
:1008F0004CFF7B6801337B607B68032BECD900BF26
:100900000837BD4680BD00BFBC2E001A00400F4016
:1009100080B582B000AF00237B600FE07B685B0096
:100920000A4A13443B603B6819783B685B781A4677
:100930000748FFF72AFF7B6801337B607B68082B41
:10094000ECD900BF0837BD4680BD00BFC42E001AD9
:1009500000400F4080B500AF002000F087F940F65E
:100960000800FFF7C7FE0349002000F099F900BF17
:1009700080BD00BF40420F0080B500AF0A4801F0C3
:10098000F9FA00210848FFF749FF00230022072158
:100990000548FFF72AFF0549034801F0B0FA02486D
:1009A000FFF713FF00BF80BD00500C40A086010080
:1009B00080B582B000AF3B461946094800F0BAFB4B
:1009C0003B46084A1946064800F0F8FB3B46002221
:1009D0001946034800F024FC00BF0837BD4680BD1F
:1009E00000300E40801A060080B500AF084800F0C5
:1009F0001DFA4FF4E131064800F094FA032104484F
:100A0000FFF72CFF0248FFF71CFF00BF80BD00BFAF
:100A100000100C4080B500AFFFF7E6FF094801F079
:100A200005F9FFF775FFFFF7C3FFFFF7A5FFFFF716
:100A300091FFFFF721FFFFF749FF00F007FC00BF20
:100A400080BD00BF00400F4080B500AFFFF7CCFF76
:100A500000BF80BD80B483B000AF0346FB710B467E
:100A6000BB711346BB800748F979BB79BA88490145
:100A70000B4440F8232000BF0C37BD465DF8047BD3
:100A8000704700BF0060084080B584B000AF786058
:100A900039600023FB6014E0FB689B007A68134414
:100AA0001878FB689B007A6813445978FB689B00B0
:100AB0007A6813445B881A46FFF7CCFFFB68013362
:100AC000FB60FA683B689A42E6D300BF1037BD4628
:100AD00080BDFFFF80B485B000AF78607B68104AAE
:100AE000A2FB0323DB0DFB600E4BD3F8203123F474
:100AF0007042FB681B030B491343C1F82031094BBB
:100B0000D3F8243123F47042FB681B0305491343D7
:100B1000C1F8243100BF1437BD465DF8047B70472F
:100B20007D26D6630030044080B500AF1D21024809
:100B3000FFF7AAFF00BF80BDDC2E001A80B582B08F
:100B400000AF1848FFF7C6FF01221649062001F042
:100B5000BDF800237B6011E07B689B00124A1344C0
:100B60003B603B6818783B6859783B689A783B68EB
:100B7000DB7800F035FF7B6801337B607B68002BFE
:100B8000EAD00A4B5B68094A23F00C035360074B19
:100B90005B68064A43F00303536000BF0837BD4655
:100BA00080BD00BF00CB280CD82E001A00300440B6
:100BB00080B500AFFFF7B8FFFFF7C0FF00BF80BDF3
:100BC00080B582B000AF0346FB71FA79074913463E
:100BD000DB009B1A9B000B4404331B88184600F073
:100BE000B1FF00BF0837BD4680BD00BF0400001044
:100BF00080B582B000AF0346FB71FA79074913460E
:100C0000DB009B1A9B000B4404331B88184600F042
:100C1000C9FF034618460837BD4680BD04000010D2
:100C200080B485B000AF03460A46FB711346BB7122
:100C3000FA791346DB009B1A9B000B4A1344FB60B6
:100C4000BB79012B0AD1FB681B691433BB6000BF61
:100C5000BB681B78DBB2042BFAD000E000BF14376E
:100C6000BD465DF8047B70470400001080B582B07B
:100C700000AF0346FB71FB791846FFF7A1FFFA7935
:100C800006491346DB009B1A9B000B441B686C2231
:100C90009A6100BF0837BD4680BD00BF0400001048
:100CA00080B584B000AF03463960FB71FB7918460C
:100CB000FFF79EFF02463B68B2FBF3F3FB60FA7955
:100CC00010491346DB009B1A9B000B441B68FA6813
:100CD00052081A61FA790B491346DB009B1A9B00F4
:100CE0000B441B681969FA7906481346DB009B1A06
:100CF0009B0003441B68FA68521A5A6100BF103700
:100D0000BD4680BD0400001080B483B000AF7860A1
:100D10007B680022DA6500BF0C37BD465DF8047BB6
:100D2000704780B483B000AF786039607B683A6800
:100D30009A6000BF0C37BD465DF8047B704780B4F5
:100D400083B000AF786039607B683A68DA6000BFD2
:100D50000C37BD465DF8047B704780B483B000AFAC
:100D600078607B68DB6843F080027B68DA6000BFF4
:100D70000C37BD465DF8047B704780B483B000AF8C
:100D800078607B68DB6823F080027B68DA6000BFF4
:100D90000C37BD465DF8047B704780B483B000AF6C
:100DA00078600B46FB701346BB70FA787B681A605C
:100DB000BA787B685A6000BF0C37BD465DF8047B8B
:100DC0007047FFFF80B485B000AF78607B68FB6040
:100DD000FB68124A934213D0FB68104A934204D82E
:100DE000FB680F4A934209D010E0FB680D4A93421A
:100DF00008D0FB680C4A934206D007E0002306E0C7
:100E0000012304E0022302E0032300E0002318464C
:100E10001437BD465DF8047B704700BF00200840D2
:100E20000010084000100C4000200C4080B584B039
:100E300000AF78607868FFF7C5FF02461B4B33F8B8
:100E4000120001230122012100F03EFE07217868F3
:100E5000FFF767FF7868FFF757FF7B6800225A604B
:100E60007B680022DA607B6800221A627B680022BD
:100E7000DA647B6800225A657B6800221A657B6809
:100E80000B4A934205D17B6800221A617B689B69FB
:100E9000FB6003217868FFF752FF7B6810229A629B
:100EA000FB6800BF1037BD4680BD00BF502F001A41
:100EB0000020084080B586B000AF7860396078685F
:100EC000FFF780FF0246164B33F81230184600F049
:100ED00069FE78613B681B017A69B2FBF3F33B6101
:100EE0003B691B0AFB60FB681B023A69D31ABB60B3
:100EF0007868FFF732FFBB68DBB2FA68D2B21946F6
:100F00007868FFF74AFF7868FFF737FF7A693B692F
:100F1000B2FBF3F31B0918461837BD4680BD00BF6E
:100F2000582F001AF0B58FB000AF786039600023F9
:100F30007B6301233B630023FB624FF0FF333B6283
:100F40007868FFF73FFF0246504B33F812301846DF
:100F500000F028FE78610123BB6263E000237B621E
:100F600057E07B691A464FF0000315091407BB6A66
:100F70001A464FF0000302FB05F004FB03F146188C
:100F8000A4FB020173181946BA6A7B6A13443A68D3
:100F900002FB03F31A464FF0000301F093FD0246F3
:100FA0000B46C7E90223BB68FB61D7E902014FF09A
:100FB00000024FF000030A0000231346BB61FB69E7
:100FC000002B05DAFB695B42FB61BB690133BB6146
:100FD0003A6AFB699A4218D3BB69002B15D0BB69EA
:100FE0001B0C002B11D1BB69022B02D87B6A002B92
:100FF0000BD1BB697B637B6AFB62BB6A3B63FB69AA
:101000003B62FB69002B09D000E000BF7B6A013323
:101010007B627A6ABB6A9A42A3D300E000BFBB6AD4
:101020000133BB623B6A002B02D0BB6A0F2B95D900
:101030007B6B002B01D1002324E07868FFF78DFE45
:101040007B6BD9B27B6B1B0ADBB21A467868FFF761
:10105000A4FE7868FFF791FE3B6B1B01DAB2FB6AD6
:1010600003F00F031A437B689A627B691B093A6B92
:1010700002FB03F2396BFB6A0B44796B01FB03F350
:10108000B2FBF3F318463C37BD46F0BD582F001AAB
:1010900080B400AF0B231846BD465DF8047B704753
:1010A00080B485B000AF78607B68074A934202D174
:1010B0000423FB8101E00323FB81FB8918461437DD
:1010C000BD465DF8047B704700400E4080B588B097
:1010D00000AFF8607A601A460B46FB721346BB728B
:1010E000F868FFF7DDFF0346184600F05BFDB861C6
:1010F000FB7A002B05D0BA7A7B6802FB03F3FB6115
:1011000007E0FFF7C5FF03461A467B6802FB03F3BF
:10111000FB61BB695A00FB691A44FB695B00B2FBC7
:10112000F3F3DBB2013BFB75FB7D18462037BD4670
:1011300080BDFFFF80B586B000AF786039600023C6
:101140007B617868FFF7ACFF034618460123012254
:10115000012100F0B9FC7B680022DA607B6943F46E
:1011600000137B613B68144A1A603B6800221A71C5
:101170000B233B613B6800225A713B681A683B694C
:10118000DBB200217868FFF7A1FF0346FB73FB7B0E
:101190001B021A467B6913437B613B681B795B0426
:1011A00003F460237A6913437B617B687A691A6070
:1011B00000BF1837BD4680BD801A060080B586B0D6
:1011C00000AFF860B9607A60FB681B6823F46F2396
:1011D00023F470637B61BB687A681A60BB685979D5
:1011E000BB681B79C3F10B03DBB27A68F868FFF7C1
:1011F0006DFF0346FB74FB7C1B021A467B6913439D
:101200007B61BB681B795B0403F460237A69134339
:101210007B61FB687A691A6000BF1837BD4680BDE4
:1012200080B584B000AFF860B9601346FB71BB684D
:10123000FA791A71BB681B681A46B968F868FFF733
:10124000BDFF00BF1037BD4680BDFFFF80B500AFBA
:10125000692000F0A7FC0246014B1A6000BF80BD68
:101260008400001080B483B000AF78607B68002BEE
:1012700002DA7B685B4200E07B6818460C37BD46AB
:101280005DF8047B7047FFFF80B588B000AF7860E1
:1012900039607B68FB613B681B6803F08003002BAF
:1012A00005D03B681B6823F040023B681A600123AD
:1012B000BB616FE000233B6166E001237B615AE084
:1012C0003B681B6803F04003002B0ED03B690133E1
:1012D0007A6902FA03F31A463B685B6903FB02F280
:1012E000BB69B2FBF3F3FB6008E03B685B697A69BA
:1012F00002FB03F2BB69B2FBF3F3FB60FB68294A14
:10130000934234D9FB68284A934239D83B681B681A
:1013100003F08003002B02D0FB68BB6005E03B6953
:101320000133FA6822FA03F3BB607A68BB68D31A08
:101330001846FFF797FF0246FB69934218D93B68AE
:10134000BA699A603B695A1C3B68DA603B687A6903
:101350001A613B68BA689A613B68FA68DA617A6830
:10136000BB68D31A1846FFF77DFFF86100E000BFA5
:101370007B6901337B617B69B3F5807FA0DD00E091
:1013800000BF3B6901333B613B69032B95DDBB69C2
:101390000133BB61BB69042B8CDD00BF2037BD4628
:1013A00080BD00BFFF5E4C0900D01213B0B59EB0E7
:1013B00000AF7860396007F10C0360220021184605
:1013C00001F026FDFB6843F08003FB603B685B692E
:1013D0003B623B681B793B7407F10C031946786844
:1013E000FFF752FF7B6A7A689A420AD13B681D4632
:1013F00007F10C040FCC0FC594E80F0085E80F002F
:101400008EE07B6A7A68D31A1846FFF72BFF0346F3
:10141000FB66FB6C23F04003FB643B685B693B6647
:101420003B681B7987F8503007F10C0340331946AD
:101430007868FFF729FF7B6E7A689A420AD13B6889
:101440001D4607F14C040FCC0FC594E80F0085E84A
:101450000F0065E07B6E7A68D31A1846FFF702FF2B
:1014600003467B677B68304A93421AD84023FB626D
:101470003B685B693B6407F10C03203319467868CD
:10148000FFF702FF7B6C7A689A420AD13B681D46DF
:1014900007F12C040FCC0FC594E80F0085E80F006E
:1014A0003EE07B6C7A68D31A1846FFF7DBFE0346F2
:1014B0003B67FA6E3B6F9A4219DCFA6E7B6F9A4279
:1014C0000ADC3B681D4607F10C040FCC0FC594E8FD
:1014D0000F0085E80F0023E03B681D4607F14C0430
:1014E0000FCC0FC594E80F0085E80F0018E03A6FA5
:1014F0007B6F9A420ADC3B681D4607F12C040FCC37
:101500000FC594E80F0085E80F0009E03B681D4611
:1015100007F14C040FCC0FC594E80F0085E80F00CD
:101520007837BD46B0BD00BF80778E0680B584B0E9
:1015300000AF03460A46FB711346BB71BB791846E0
:1015400000F060F90346FB73BB79184600F07AF9A6
:10155000B860FB7B184600F091F90246BB68013386
:10156000B2FBF3F318461037BD4680BD80B485B09A
:1015700000AF0346FB801C23FB730023BB6024E009
:101580001D49BA6813465B0013445B000B441B887B
:10159000FA889A4216D31849BA6813465B00134476
:1015A0005B000B4402331B88FA889A420AD812491E
:1015B000BA6813465B0013445B000B4404331B788A
:1015C000FB7302E0BB680133BB60FB7B1C2B0BD1C0
:1015D0000949BA6813465B0013445B000B440433AB
:1015E0001B78FA7B9A42CBD1FB7B18461437BD4659
:1015F0005DF8047B704700BF602F001A80B483B091
:1016000000AF4FF47A733B60154B9B697B607B683E
:1016100023F002037B60124B9B697A689A4202D0E6
:101620000F4A7B6893617B6823F001037B600D4B5D
:101630001B680D4A934203D97B6843F004037B6027
:10164000074A7B68936100BF3B685A1E3A60002BD3
:10165000FAD100BF0C37BD465DF8047B704700BF70
:1016600000000540AC2E001AFF2C310180B582B07D
:1016700000AF786039603B681B79184600F0FEF8CF
:1016800002463B685A617B682B4A934207D87B68C5
:101690002A4A934203D93B685B69002B02D14FF081
:1016A000FF3344E03B6880221A603B6800229A6066
:1016B0003B680022DA603B685B697A68B2FBF3F34F
:1016C0001A463B681A617B681D4A934209D93B68F8
:1016D0001B691A463B685B6903FB02F37A689A420E
:1016E0000FD039687868FFF761FE3B689B68002B74
:1016F00002D14FF0FF331AE03B689B685A1E3B68EB
:101700009A603B681B69002B02D14FF0FF330EE05B
:101710003B68DB68002B04D03B68DB685A1E3B68E3
:10172000DA603B681B695A1E3B681A610023184641
:101730000837BD4680BD00BF00CB280CEFC5940024
:10174000FF5E4C0980B58CB000AF2C4B5B6CFB622C
:10175000FB6A1B0EDBB203F00F03DBB2184600F08E
:101760008DF8B862264B1B687B60244B1B6C03F022
:101770000103002B01D100233BE0FB6A1B0CDBB211
:101780007B62FB6A1B0B03F003033B62FB6A1B0AD1
:1017900003F00303FB61FB6ADB0903F00103BB6198
:1017A000FB6A9B0903F001037B617B6A01333B61A8
:1017B0003B6A0133FB603A1DFB6913441B78BB6035
:1017C000BB69002B02D17B69002B07D0BA6AFB688A
:1017D000B2FBF3F33A6902FB03F30AE0BB685B0078
:1017E0003A69B2FBF3F3B96AFA68B1FBF2F202FBB1
:1017F00003F318463037BD4680BD00BF00000540EA
:10180000CC2F001A80B485B000AF0346FB710C4AA0
:10181000FB79123352F82330FB60FB6803F00103BD
:10182000002B01D0112305E0FB681B0EDBB203F097
:101830001F03DBB218461437BD465DF8047B7047C2
:101840000000054080B483B000AF0346FB71094A35
:10185000FB79123352F823309B08DAB2FB79064940
:10186000CB5C1340DBB218460C37BD465DF8047BF9
:10187000704700BF00000540D02F001A80B584B02B
:1018800000AF0346FB710023FB60FB79112B7FD86F
:1018900001A252F823F000BFE118001AE918001A5B
:1018A000EF18001A0319001A1D19001A9119001ACD
:1018B0002519001A2D19001A3519001A3D19001A98
:1018C0009119001A9119001A4519001A5319001A92
:1018D0006119001A6F19001A7D19001A8B19001A64
:1018E0004FF40043FB6056E02D4BFB6053E02D4B63
:1018F000D3F82C3103F00703042B4BD02A4BFB60A9
:1019000048E0284BD3F82C3103F00703042B02D016
:10191000254BFB603FE0254BFB603CE0244B1B6804
:10192000FB6038E0234B1B68FB6034E0224B1B68F4
:10193000FB6030E0204B5B68FB602CE0FFF702FFB0
:10194000F86028E0FB7900211846FFF7EFFDF8600A
:1019500021E0FB7901211846FFF7E8FDF8601AE065
:10196000FB7902211846FFF7E1FDF86013E0FB79EF
:1019700003211846FFF7DAFDF8600CE0FB7904213B
:101980001846FFF7D3FDF86005E00023FB6002E096
:1019900000BF00E000BFFB6818461037BD4680BDA1
:1019A000001BB7000030044040787D0180F0FA024F
:1019B000A82E001AAC2E001A6400001080B582B068
:1019C00000AF0346FB71FB79184600F057F8034659
:1019D0001846FFF753FF034618460837BD4680BD3B
:1019E00090B484B000AF0446084611461A46234618
:1019F000FB710346BB710B467B7113463B711D4A5D
:101A0000FB7916339B0013445B68FB60FB791B2B4F
:101A100022D8BB79112B28D0FA68174B1340FB60F2
:101A20007B79002B03D0FB6843F40063FB603B79B8
:101A3000002B03D0FB6843F00103FB60BB791B065E
:101A40001A46FB681343FB600A4AFB7916339B0076
:101A50001344FA685A6008E00649FB79FA6842F0D4
:101A6000010216339B000B445A6000BF1037BD467D
:101A700090BC704700000540FEF7FFE080B485B0E1
:101A800000AF0346FB71FB791B2B01D9112313E037
:101A90000C4AFB7916339B0013445B68FB60FB68C0
:101AA00003F00103002B01D0112305E0FB681B0E9E
:101AB000DBB203F01F03DBB218461437BD465DF8F6
:101AC000047B70470000054080B485B000AF3B60E8
:101AD0000346FB800B467B7113463B710123FB6081
:101AE0007B79002B03D0FB6843F00203FB603B795A
:101AF000002B03D0FB6843F00403FB603B68022B20
:101B000003D1FB6843F02003FB60FB88B3F5A17FA2
:101B100008D30A49FB88A3F5A1732033FA6841F87A
:101B2000332005E00649FB882033FA6841F833206A
:101B300000BF1437BD465DF8047B704700200540A8
:101B40000010054080B483B000AF0346FB80FB88E3
:101B5000B3F5A17F10D3114AFB88A3F5A1732033FD
:101B600052F833200D49FB88A3F5A17342F001021E
:101B7000203341F833200BE0094AFB88203352F828
:101B800033200749FB8842F00102203341F833201B
:101B900000BF0C37BD465DF8047B70470020054050
:101BA0000010054080B586B000AF0346FB80FB887F
:101BB000B3F5A17F08D31B4AFB88A3F5A17320339B
:101BC00052F833307B6105E0174AFB88203352F826
:101BD00033307B617B6903F00103002B1BD0FB8852
:101BE0001846FFF7C3FC0346FB72FB7A1846FFF763
:101BF000E5FEF8607B695B0903F00703002B02D167
:101C000001233B6101E002233B61FA683B69B2FBBF
:101C1000F3F3FB6001E00023FB60FB681846183714
:101C2000BD4680BD002005400010054080B483B053
:101C300000AF786000BF0C37BD465DF8047B70478D
:101C400080B400AF054B5B6C044A43F0010353645E
:101C500000BFBD465DF8047B704700BF0000054033
:101C600080B483B000AF78607B681B681A467B68DD
:101C70001B791B0613437A681269120413437A68AE
:101C80009268120313437A68D26812021343054A1A
:101C900043F40063536400BF0C37BD465DF8047B1A
:101CA000704700BF0000054080B400AF064B1B6CBE
:101CB00003F00103002B14BF01230023DBB21846FD
:101CC000BD465DF8047B70470000054090B58FB0BD
:101CD00000AF03463960FB711346BB714CF25033C1
:101CE000BB6200233B630023FB62FB79062B01D11F
:101CF000FFF784FCF979002301220420FFF770FE2E
:101D0000FFF79EFFFB793B7307F10803194638681C
:101D1000FFF7ACFC3B683D4A934216D9BB6803F021
:101D20004003002B00D0FEE7BB6803F08003002BCC
:101D300006D001233B63BB6823F08003BB6004E053
:101D40000123FB627B6901337B6107F108031846BD
:101D5000FFF786FF00BFFFF7A7FF0346002BFAD06F
:101D60000023012209210420FFF73AFE3B6B002BE0
:101D700012D04CF25033BB6200BFBB6A5A1EBA622B
:101D8000002BFAD1BB6843F08003BB6007F1080366
:101D90001846FFF765FF13E0FB6A002B10D04CF2EA
:101DA0005033BB6200BFBB6A5A1EBA62002BFAD125
:101DB0007B69013B7B6107F108031846FFF750FF81
:101DC000BB79002B1ED000237B6318E0104A7B6B8D
:101DD00012F823000E4A7B6B9B00134459780C4A7F
:101DE0007B6B9B0013449C78094A7B6B9B001344DC
:101DF000DB782246FFF7F4FD7B6B01337B637B6B63
:101E0000112BE3D900BF3C37BD4690BD80778E06CD
:101E1000D82F001A80B485B000AFF860B9607A603E
:101E20003B60FB681B6823F0FF02BB681A437B68BA
:101E30001A433B681A43FB681A6000BF1437BD465B
:101E40005DF8047B704780B483B000AF7860396080
:101E50007B685B6823F004023B681A437B685A6026
:101E600000BF0C37BD465DF8047B704780B485B079
:101E700000AF78607B68074A934202D1A523FB81BB
:101E800001E08323FB81FB8918461437BD465DF8CA
:101E9000047B704700500C4080B485B000AF786080
:101EA0007B68084A934203D14FF4F173FB8102E04F
:101EB00040F20223FB81FB8918461437BD465DF8CA
:101EC000047B704700500C4080B487B000AFF860CE
:101ED000B9607A60FB681B6823F47F437B61BB6851
:101EE0001B029AB27B691A43FB681A60FB687A6826
:101EF0001A6100BF1C37BD465DF8047B704780B592
:101F000086B000AF786039607868FFF7C5FF034698
:101F10001846FFF747FEB86000237B614FF0FF33A0
:101F20003B610223FB6017E07B690133FA6802FB27
:101F300003F3BA68B2FBF3F33B613A693B689A4238
:101F40000AD97B6901337B617B69FF2B04D90023AC
:101F50007B61FB680233FB603A693B689A42E3D8D5
:101F6000FA6879697868FFF7AFFF00BF1837BD4698
:101F700080BDFFFF80B582B000AF78607868FFF762
:101F800075FF03461846FFF7DDFD7868FFF784FF0D
:101F900003461846FFF7D6FD00217868FFF753FF88
:101FA0000023002207217868FFF734FF034978688F
:101FB000FFF7A5FF00BF0837BD4680BDA086010022
:101FC00080B483B000AF084B1B697B607B6803F46F
:101FD0007F63202B01D1012300E0002318460C373A
:101FE000BD465DF8047B704730EF00E080B500AF80
:101FF0000A4B0B4A9A60FFF7E3FF0346002B07D01A
:10200000064BD3F88830054A43F47003C2F8883091
:10201000FEF7CEFDFEF7FEFC00BF80BD00ED00E048
:102020000000001A80B483B000AF7860074A7B6874
:102030001360074B1B68064A43F00103136001233A
:1020400018460C37BD465DF8047B70473C00001015
:10205000001000E080B483B000AF0346FB710B4674
:10206000BB711346BB800748F979BB79BA8849012F
:102070000B4440F8232000BF0C37BD465DF8047BBD
:10208000704700BF0060084090B583B000AF0446C1
:10209000084611461A462346FB710346BB710B46A0
:1020A000BB801346FB70FB789AB2BB8813439AB28D
:1020B000B979FB791846FFF7CDFF00BF0C37BD4655
:1020C00090BD80B483B000AF78607B680122DA6590
:1020D00000BF0C37BD465DF8047B704780B483B009
:1020E00000AF78600B46FB70FA787B681A6000BF1F
:1020F0000C37BD465DF8047B704780B483B000AFF9
:1021000078607B681B68DBB218460C37BD465DF80B
:10211000047B704780B483B000AF786039607B681F
:102120003A689A6000BF0C37BD465DF8047B704783
:1021300080B483B000AF78607B685B6918460C3769
:10214000BD465DF8047B704780B483B000AF786013
:1021500039607B68DA6C3B681A437B68DA6400BFDD
:102160000C37BD465DF8047B7047FFFF80B582B039
:1021700000AF0346FB71FA79094913465B0013442B
:102180009B000B441B681846FFF7D2FF0346DBB2E7
:1021900003F02003DBB218460837BD4680BD00BF00
:1021A0002030001A80B582B000AF03460A46FB71AA
:1021B0001346BB71FA79084913465B0013449B0030
:1021C0000B441B68BA7911461846FFF787FF00BF1A
:1021D0000837BD4680BD00BF2030001A90B583B0DF
:1021E00000AF03463960FB71FA79434913465B003F
:1021F00013449B000B441B681846FEF717FEFA7940
:102200003D4913465B0013449B000B441B6839682F
:102210001846FEF74FFEFA79374913465B00134420
:102220009B000B441B6807211846FFF773FFFA79E0
:10223000314913465B0013449B000B441B6818464E
:10224000FFF75BFFFA792C4913465B0013449B00B0
:102250000B441B681846FFF734FFFA7926491346EA
:102260005B0013449B000B4404331878FA7922492D
:1022700013465B0013449B000B4405331C78FA792A
:102280001D4913465B0013449B000B4406331B7827
:1022900018222146FFF7F8FEFA79174913465B002A
:1022A00013449B000B4407331878FA7912491346FC
:1022B0005B0013449B000B4408331C78FA790E49E9
:1022C00013465B0013449B000B4409331B78D02258
:1022D0002146FFF7D9FEFB79012B09D130210748B0
:1022E000FFF732FF0620022102231822FFF7CCFE5F
:1022F00000BF0C37BD4690BD2030001A00100840CA
:1023000080B582B000AF03460A46FB711346BB712D
:1023100000BFFB791846FFF729FF0346002BF8D0D2
:10232000BA79FB7911461846FFF73CFF00BF083722
:10233000BD4680BD80B582B000AF03463960FB71F9
:1023400009E03B681A78FB7911461846FFF7D8FF79
:102350003B6801333B603B681B78002BF1D100BF29
:102360000837BD4680BDFFFF80B483B000AF034691
:102370003960FB7197F90730002B0ADB3B68DAB252
:102380000C4997F907305201D2B20B4483F800236D
:102390000AE03B68DAB20849FB7903F00F03043B1B
:1023A0005201D2B20B441A7600BF0C37BD465DF81D
:1023B000047B704700E100E000ED00E080B582B0F2
:1023C00000AF78607B68013BB3F1807F01D30123CC
:1023D0000FE00A4A7B68013B536007214FF0FF3052
:1023E000FFF7C2FF054B00229A60044B07221A60D8
:1023F000002318460837BD4680BD00BF10E000E04E
:1024000090B587B000AFC7E900010123FB754FF01D
:1024100000034FF00004C7E90234D7E90034234336
:1024200005D1002000F048F80023FB752FE0D7E924
:102430000034234329D0D7E90034002C08BF332BC4
:1024400023D2154AD7E90034C2E90034134B1B6884
:102450004FF000043A6804FB02F17A6803FB02F2D1
:102460000A443968A1FB0301531819464FF47A72E4
:102470004FF0000300F026FB03460C461846FFF71A
:102480009DFF012000F018F801E00023FB75FB7DA3
:1024900018461C37BD4690BD400000108400001057
:1024A00090B400AF034BD3E9003418462146BD4633
:1024B00090BC70477000001080B483B000AF03463A
:1024C000FB71FB79002B03D0064B07221A6002E058
:1024D000044B00221A6000BF0C37BD465DF8047B38
:1024E000704700BF10E000E098B500AF0A4BD3E999
:1024F0000034591C44F10002074BC3E90012074B9A
:102500001B68002B05D0054B1B68054A1268104656
:10251000984700BF98BD00BF700000107800001001
:102520007C00001080B483B000AF0346FB710B4603
:10253000BB711346BB800748F979BB79BA8849015A
:102540000B4440F8232000BF0C37BD465DF8047BE8
:10255000704700BF0060084090B583B000AF0446EC
:10256000084611461A462346FB710346BB710B46CB
:10257000BB801346FB70FB789AB2BB8813439AB2B8
:10258000B979FB791846FFF7CDFF00BF0C37BD4680
:1025900090BD80B483B000AF7860084611461A46FB
:1025A0000346FB700B46BB7013467B70FA78BB7812
:1025B0007878796852010A44134402461A7000BFC1
:1025C0000C37BD465DF8047B704780B485B000AF22
:1025D000F860B9601346FB71FB79F968BA6852017B
:1025E0000A4413441B78DBB2002B14BF01230023E1
:1025F000DBB218461437BD465DF8047B704780B4E3
:1026000085B000AFF8607A601A460B46FB7213463D
:10261000BB72BB7A002B0ED0FA7AFB6802F500621F
:1026200053F82210FA7A7B681943FB6802F50062BE
:1026300043F822100EE0FA7AFB6802F5006253F8C4
:1026400022107B68DB43FA7A1940FB6802F50062CE
:1026500043F8221000BF1437BD465DF8047B704775
:1026600080B485B000AFB9607A603B600346FB730D
:1026700097F90F201F4913469B0013440B4493F90D
:102680000020BB681A7097F90F201A4913469B0067
:1026900013440B44013393F900207B681A7097F9B7
:1026A0000F20144913469B0013440B44023393F943
:1026B00000203B681A7097F90F200E4913469B00C3
:1026C00013440B44033393F90020BB691A7097F944
:1026D0000F20084913469B0013440B44043393F91D
:1026E0000020FB691A7000BF1437BD465DF8047BFB
:1026F000704700BF6830001A90B587B002AF03463C
:102700000A46FB711346BB7197F9073013F1020FAC
:1027100001D10023CAE097F90730B3F1FF3F01D19F
:102720000023C3E00123FB730023BB7300237B73EF
:1027300000233B730023FB720023BB7207F10C04E0
:1027400007F10D0207F10E0197F9070007F10A03DF
:10275000019307F10B0300932346FFF781FFBB7939
:10276000052B00F29F8001A252F823F08D27001A5A
:102770005D28001AC127001AF527001A2928001A17
:102780008527001A4B48FFF751FA8EE097F90E3073
:10279000D8B297F90D30D9B297F90C30DBB2D0220C
:1027A000FFF7DAFE97F90B30D9B297F90A301A46DB
:1027B000012393401A4600233E48FFF720FF74E0B0
:1027C00097F90E30D8B297F90D30D9B297F90C308D
:1027D000DBB2C022FFF7C0FE97F90B30D9B297F9F0
:1027E0000A301A46012393401A4600233148FFF766
:1027F00006FF5AE097F90E30D8B297F90D30D9B2EA
:1028000097F90C30DBB2D822FFF7A6FE97F90B3010
:10281000D9B297F90A301A46012393401A46002389
:102820002448FFF7ECFE40E097F90E30D8B297F954
:102830000D30D9B297F90C30DBB2C822FFF78CFE0D
:1028400097F90B30D9B297F90A301A460123934011
:102850001A4600231748FFF7D2FE26E097F90E30FC
:10286000D8B297F90D30D9B297F90C30DBB2D0223B
:10287000FFF772FE97F90B30D9B297F90A301A4672
:10288000012393401A4601230A48FFF7B8FE97F93F
:102890000B30D9B297F90A30DAB200230548FFF7B6
:1028A00078FE02E00023FB7300BFFB7B1846143761
:1028B000BD4690BD00400F4090B587B002AF0346C3
:1028C0000A46FB711346BB7197F9073013F1020FEB
:1028D00001D1002333E097F90730B3F1FF3F01D175
:1028E00000232CE00123FB730023BB7300237B73C5
:1028F00000233B730023FB720023BB7207F10C041F
:1029000007F10D0207F10E0197F9070007F10A031D
:10291000019307F10B0300932346FFF7A1FE97F9FC
:102920000B30D9B297F90A30DAB2BB79002B14BF59
:1029300001230023DBB20448FFF72BFEFB7B184684
:102940001437BD4690BD00BF00400F4090B587B022
:1029500002AF0346FB7197F9073013F1020F01D163
:10296000012330E097F90730B3F1FF3F01D1002395
:1029700029E00023FB730023BB7300237B73002338
:102980003B730023FB720023BB7207F10C0407F1B9
:102990000D0207F10E0197F9070007F10A030193F1
:1029A00007F10B0300932346FFF75AFE97F90B300C
:1029B000194697F90A30DBB21A460548FFF705FEBB
:1029C0000346FB73FB7B18461437BD4690BD00BF22
:1029D00000400F4080B500AF044B1B681B68DB68EC
:1029E000034A12681046984700BF80BD8800001057
:1029F0008000001080B500AFFEF728FC1C4B1B6860
:102A00001846FFF70FFB4FF001004FF00001FFF7F2
:102A1000F7FC05210020FFF76FFE00212420FFF7BF
:102A20006BFE00212520FFF767FE00212620FFF71F
:102A300063FE00212720FFF75FFE01212820FFF71A
:102A40005BFE01212920FFF757FE01212A20FFF715
:102A500053FE01212B20FFF74FFE01212C20FFF711
:102A60004BFE01212D20FFF747FE00BF80BD00BFB8
:102A700084000010F0B585B000AFC7E90001FFF792
:102A80000FFDC7E9020100BFFFF70AFD0A46014634
:102A9000D7E90234CD1A62EB0406094BD3E90034BE
:102AA0001A462346D7E9000100F00CF803460C460D
:102AB000A64208BF9D42E7D300BF1437BD46F0BD14
:102AC0004000001053B94AB9002908BF00281CBFB4
:102AD0004FF0FF314FF0FF3000F074B9ADF1080C4A
:102AE0006DE904CE00F006F8DDF804E0DDE902232C
:102AF00004B070472DE9F047089E04468846002B35
:102B000040F085808A42154648D9B2FA82F24AB12D
:102B1000C2F1200701FA02F320FA07F7954047EACD
:102B2000030894404FEA154E230CB8FBFEF71FFA3A
:102B300085FC0EFB178843EA084307FB0CF199421A
:102B400009D9EB1807F1FF3080F0E380994240F299
:102B5000E080023F2B445B1AA4B2B3FBFEF00EFBF5
:102B6000103344EA034400FB0CFCA44509D92C199A
:102B700000F1FF3380F0CB80A44540F2C8800238DA
:102B80002C4440EA0740A4EB0C0400271EB1D440BB
:102B90000023C6E900433946BDE8F087002A53D038
:102BA000B2FA82F2002A40F0B680491B4FEA154E75
:102BB0001FFA85F80127B1FBFEFC230C0EFB1C114C
:102BC00043EA014308FB0CF1994207D9EB180CF1D9
:102BD000FF3002D2994200F2EC808446591AA3B227
:102BE000B1FBFEF00EFB101443EA044408FB00F8AE
:102BF000A04507D92C1900F1FF3302D2A04500F2FD
:102C0000DC801846A4EB080440EA0C40BEE78B4287
:102C100008D9002E78D00027C6E900013846394689
:102C2000BDE8F087B3FA83F77FB98B4202D38242C3
:102C300000F2BD80841A61EB030301209846002E48
:102C4000A9D0C6E90048A6E7FFDEC7F12005BB40D2
:102C500022FA05FC4CEA030C01FA07F420FA05F805
:102C600021FA05F34FEA1C4E48EA0404B3FBFEF9CF
:102C7000210C0EFB19331FFA8CF841EA034309FBC0
:102C800008FA9A4502FA07F200FA07F10BD91CEB91
:102C9000030309F1FF3080F088809A4540F2858077
:102CA000A9F102096344A3EB0A03A4B2B3FBFEF04B
:102CB0000EFB103344EA034400FB08F8A04508D992
:102CC0001CEB040400F1FF336BD2A04569D9023834
:102CD000644440EA0940A4EB0804A0FB02894C4587
:102CE000C6464B4654D351D0002E69D0B1EB0E02EC
:102CF00064EB030404FA05F522FA07F3FC401D43D4
:102D0000C6E90054002746E73746304643E71846F1
:102D100037E707461FE7C2F1200320FA03F7954083
:102D200001FA02F021FA03F34FEA154E3843010C81
:102D3000B3FBFEF71FFA85F80EFB173341EA034198
:102D400007FB08F38B4204FA02F407D9691807F16C
:102D5000FF3C28D28B4226D9023F2944CB1A81B2AC
:102D6000B3FBFEF00EFB103341EA034100FB08F316
:102D70008B4207D9691800F1FF3C10D28B420ED963
:102D800002382944C91A40EA074714E74145ABD243
:102D9000B8EB020E69EB0C0201381346A4E760465B
:102DA000F0E7184695E76746D8E781467BE738465F
:102DB00045E7ACF1020C2B4410E702382C4421E724
:102DC0003746E8E6704700BF70B50D4D0D4C641BEB
:102DD000A4100026A64209D10B4D0C4CFDF71CFC9B
:102DE000641BA4100026A64205D170BD55F8043B13
:102DF00098470136EEE755F8043B98470136F2E76D
:102E00005031001A5031001A5031001A5431001A52
:102E100002440346934200D1704703F8011BF9E7CF
:102E20007A797877767574737271706F6E6D6C6B7A
:102E30006A69686766656463626139383736353454
:102E400033323130313233343536373839616263B9
:102E50006465666768696A6B6C6D6E6F70717273BA
:102E60007475767778797A00496E6963696C697AE6
:102E7000616369C3B36E20636F7272656374612EA0
:102E80002E0D0A000D0A00FF696E696369616C69A5
:102E90007A61200D0A00FFFF696E696369616C69E0
:102EA0007A61200D0A00FFFF00000000001BB70040
:102EB000050005010502000E010B010C00040008CD
:102EC00000090109030003030304050F05100305AE
:102ED000030603070208FFFF010F0101020044007F
:102EE0000201440002024400020A4000020B4000BA
:102EF000020C40000100500001015000010250008E
:102F0000010650000601500006045000060550005E
:102F1000060754000608540006095000060A50002F
:102F2000060B5000060C50000F04F0000103D50002
:102F30000104D500070116000702560002035200E3
:102F40000204520009055200090657000602570004
:102F500081008200A100A200C201A20182016201DF
:102F6000000005000A002000240009004000400085
:102F700005006000A6000400C000C3000200E000DD
:102F8000E000010000010001030020012001060013
:102F9000400140010C00420142011900620162013E
:102FA0001300820182011200A201A2011100C201DC
:102FB000C2011000E201E2010F00020202020E0053
:102FC000220222020D00230223021C000102040837
:102FD000030F0F0FFF00FFFF0001010009090100AF
:102FE0000A090100010701010209010006090100A7
:102FF0000C0901010D0901000E0901000F09010072
:103000001009010011090100120901001309010052
:1030100014110100191101001A1101001B11010006
:1030200000100840060402060502180000100840BF
:1030300009050709060718000020084000000000E5
:103040000000190000100C400701060702061A00D4
:1030500000100C40010F010110011A0000200C406B
:103060000203020204021B00040100020107050022
:10307000030D01050001080402000202040300021E
:10308000030400000200070400030C030204050906
:1030900003010405080203040503020404050406F1
:1030A0000C000208060B00030706090003050607CB
:1030B00004050F06040003030404000204040500D1
:1030C00002050406000206040804050C040A0405AF
:1030D0000E010300000A011400000F011200000D90
:1030E000011100000C0110000003070700030F008E
:1030F000010000010000000000060A0003060608A7
:103100000405100605000304060100030004090479
:10311000050D010400000B010F000002010000007A
:103120000401010000080102000009010600010974
:103130000200040500020104050102020405020266
:103140000A00000E020B00010B020C00010CFFFF35
:04315000490A001A0E
:08315400A0F9FF7F010000005B
:10315C0001FFFFFF00100A4022000000210C001AA2
:10316C000000000000000000000000000000000053
:10317C0000000E4001000000210C001A00000000AD
:10318C0000000000000000000000000000CB280C34
:08319C0001000000000000002A
:040000051A000629AE
:00000001FF
